{
  "contractName": "VotingContract",
  "abi": [
    {
      "inputs": [],
      "stateMutability": "nonpayable",
      "type": "constructor"
    },
    {
      "inputs": [
        {
          "internalType": "uint256",
          "name": "",
          "type": "uint256"
        }
      ],
      "name": "candidateDetails",
      "outputs": [
        {
          "internalType": "uint256",
          "name": "candidateId",
          "type": "uint256"
        },
        {
          "internalType": "string",
          "name": "name",
          "type": "string"
        },
        {
          "internalType": "string",
          "name": "details",
          "type": "string"
        },
        {
          "internalType": "uint256",
          "name": "voteCount",
          "type": "uint256"
        }
      ],
      "stateMutability": "view",
      "type": "function",
      "constant": true
    },
    {
      "inputs": [
        {
          "internalType": "address",
          "name": "",
          "type": "address"
        }
      ],
      "name": "nonces",
      "outputs": [
        {
          "internalType": "uint256",
          "name": "",
          "type": "uint256"
        }
      ],
      "stateMutability": "view",
      "type": "function",
      "constant": true
    },
    {
      "inputs": [
        {
          "internalType": "address",
          "name": "",
          "type": "address"
        }
      ],
      "name": "voterAddresses",
      "outputs": [
        {
          "internalType": "string",
          "name": "name",
          "type": "string"
        },
        {
          "internalType": "string",
          "name": "voterId",
          "type": "string"
        },
        {
          "internalType": "address",
          "name": "voterAddress",
          "type": "address"
        },
        {
          "internalType": "bool",
          "name": "hasVoted",
          "type": "bool"
        }
      ],
      "stateMutability": "view",
      "type": "function",
      "constant": true
    },
    {
      "inputs": [
        {
          "internalType": "string",
          "name": "_name",
          "type": "string"
        },
        {
          "internalType": "string",
          "name": "_details",
          "type": "string"
        }
      ],
      "name": "addCandidate",
      "outputs": [],
      "stateMutability": "nonpayable",
      "type": "function"
    },
    {
      "inputs": [
        {
          "internalType": "string",
          "name": "_name",
          "type": "string"
        },
        {
          "internalType": "string",
          "name": "_voterId",
          "type": "string"
        },
        {
          "internalType": "address",
          "name": "_voterAddress",
          "type": "address"
        },
        {
          "internalType": "bool",
          "name": "_hasVoted",
          "type": "bool"
        }
      ],
      "name": "manualAddVoter",
      "outputs": [],
      "stateMutability": "nonpayable",
      "type": "function"
    },
    {
      "inputs": [
        {
          "internalType": "uint256",
          "name": "_candidateId",
          "type": "uint256"
        }
      ],
      "name": "vote",
      "outputs": [],
      "stateMutability": "nonpayable",
      "type": "function"
    },
    {
      "inputs": [
        {
          "internalType": "uint256",
          "name": "_candidateId",
          "type": "uint256"
        },
        {
          "internalType": "address",
          "name": "userAddress",
          "type": "address"
        },
        {
          "internalType": "bytes32",
          "name": "r",
          "type": "bytes32"
        },
        {
          "internalType": "bytes32",
          "name": "s",
          "type": "bytes32"
        },
        {
          "internalType": "uint8",
          "name": "v",
          "type": "uint8"
        }
      ],
      "name": "voteMeta",
      "outputs": [],
      "stateMutability": "nonpayable",
      "type": "function"
    },
    {
      "inputs": [],
      "name": "startElection",
      "outputs": [],
      "stateMutability": "nonpayable",
      "type": "function"
    },
    {
      "inputs": [],
      "name": "endEelection",
      "outputs": [],
      "stateMutability": "nonpayable",
      "type": "function"
    },
    {
      "inputs": [],
      "name": "electionStatus",
      "outputs": [
        {
          "internalType": "bool",
          "name": "",
          "type": "bool"
        }
      ],
      "stateMutability": "view",
      "type": "function",
      "constant": true
    },
    {
      "inputs": [],
      "name": "electionResults",
      "outputs": [
        {
          "internalType": "uint256",
          "name": "",
          "type": "uint256"
        }
      ],
      "stateMutability": "nonpayable",
      "type": "function"
    },
    {
      "inputs": [],
      "name": "viewWinner",
      "outputs": [
        {
          "internalType": "string",
          "name": "",
          "type": "string"
        }
      ],
      "stateMutability": "view",
      "type": "function",
      "constant": true
    },
    {
      "inputs": [],
      "name": "getVoterCount",
      "outputs": [
        {
          "internalType": "uint256",
          "name": "",
          "type": "uint256"
        }
      ],
      "stateMutability": "view",
      "type": "function",
      "constant": true
    },
    {
      "inputs": [],
      "name": "getOwner",
      "outputs": [
        {
          "internalType": "address",
          "name": "",
          "type": "address"
        }
      ],
      "stateMutability": "view",
      "type": "function",
      "constant": true
    },
    {
      "inputs": [],
      "name": "getCandidateCount",
      "outputs": [
        {
          "internalType": "uint256",
          "name": "",
          "type": "uint256"
        }
      ],
      "stateMutability": "view",
      "type": "function",
      "constant": true
    }
  ],
  "bytecode": "0x60806040526000600155600060025560405180608001604052806052815260200162001e3960529139805190602001206040518060400160405280600581526020017f51756f7465000000000000000000000000000000000000000000000000000000815250805190602001206040518060400160405280600181526020017f310000000000000000000000000000000000000000000000000000000000000081525080519060200120600430604051602001620000c295949392919062000167565b604051602081830303815290604052805190602001206006556000600a55348015620000ed57600080fd5b50336000806101000a81548173ffffffffffffffffffffffffffffffffffffffff021916908373ffffffffffffffffffffffffffffffffffffffff16021790555062000223565b6200013f81620001c4565b82525050565b6200015081620001d8565b82525050565b62000161816200020f565b82525050565b600060a0820190506200017e600083018862000145565b6200018d602083018762000145565b6200019c604083018662000145565b620001ab606083018562000156565b620001ba608083018462000134565b9695505050505050565b6000620001d182620001e2565b9050919050565b6000819050919050565b600073ffffffffffffffffffffffffffffffffffffffff82169050919050565b600060ff82169050919050565b60006200021c8262000202565b9050919050565b611c0680620002336000396000f3fe608060405234801561001057600080fd5b50600436106100f55760003560e01c8063392e2403116100975780637ecebe00116100665780637ecebe0014610240578063893d20e814610270578063b416ecba1461028e578063eaef0349146102aa576100f5565b8063392e2403146101db5780633fe1be43146101f95780636247e5321461020357806362d73eb814610236576100f5565b806311174a29116100d357806311174a291461016757806326541b56146101855780632d3ff02f146101a157806330a56347146101bd576100f5565b80630121b93f146100fa578063037272831461011657806308670f4f14610149575b600080fd5b610114600480360381019061010f91906113f5565b6102c8565b005b610130600480360381019061012b91906112cd565b6103d4565b604051610140949392919061173b565b60405180910390f35b610151610541565b60405161015e91906117ee565b60405180910390f35b61016f610723565b60405161017c91906117ee565b60405180910390f35b61019f600480360381019061019a91906112f6565b61072d565b005b6101bb60048036038101906101b6919061141e565b610868565b005b6101c5610be9565b6040516101d291906117ee565b60405180910390f35b6101e3610bf3565b6040516101f09190611719565b60405180910390f35b610201610c9b565b005b61021d600480360381019061021891906113f5565b610d46565b60405161022d9493929190611809565b60405180910390f35b61023e610e86565b005b61025a600480360381019061025591906112cd565b610f31565b60405161026791906117ee565b60405180910390f35b610278610f49565b6040516102859190611667565b60405180910390f35b6102a860048036038101906102a39190611362565b610f72565b005b6102b2611142565b6040516102bf9190611682565b60405180910390f35b60001515600760003373ffffffffffffffffffffffffffffffffffffffff1673ffffffffffffffffffffffffffffffffffffffff16815260200190815260200160002060020160149054906101000a900460ff1615151461032857600080fd5b60011515600360009054906101000a900460ff1615151461034857600080fd5b600160086000838152602001908152602001600020600301600082825461036f91906118e4565b925050819055506001600760003373ffffffffffffffffffffffffffffffffffffffff1673ffffffffffffffffffffffffffffffffffffffff16815260200190815260200160002060020160146101000a81548160ff02191690831515021790555050565b60076020528060005260406000206000915090508060000180546103f790611a0f565b80601f016020809104026020016040519081016040528092919081815260200182805461042390611a0f565b80156104705780601f1061044557610100808354040283529160200191610470565b820191906000526020600020905b81548152906001019060200180831161045357829003601f168201915b50505050509080600101805461048590611a0f565b80601f01602080910402602001604051908101604052809291908181526020018280546104b190611a0f565b80156104fe5780601f106104d3576101008083540402835291602001916104fe565b820191906000526020600020905b8154815290600101906020018083116104e157829003601f168201915b5050505050908060020160009054906101000a900473ffffffffffffffffffffffffffffffffffffffff16908060020160149054906101000a900460ff16905084565b60008060009054906101000a900473ffffffffffffffffffffffffffffffffffffffff1673ffffffffffffffffffffffffffffffffffffffff163373ffffffffffffffffffffffffffffffffffffffff16146105d2576040517f08c379a00000000000000000000000000000000000000000000000000000000081526004016105c9906117ae565b60405180910390fd5b60001515600360009054906101000a900460ff161515146105f257600080fd5b60005b60015481101561065157600960086000838152602001908152602001600020600301549080600181540180825580915050600190039060005260206000200160009091909190915055808061064990611a41565b9150506105f5565b506000600190505b60015481101561071a576009600182610672919061193a565b815481106106a9577f4e487b7100000000000000000000000000000000000000000000000000000000600052603260045260246000fd5b9060005260206000200154600982815481106106ee577f4e487b7100000000000000000000000000000000000000000000000000000000600052603260045260246000fd5b906000526020600020015411156107075780600a819055505b808061071290611a41565b915050610659565b50600a54905090565b6000600254905090565b60008054906101000a900473ffffffffffffffffffffffffffffffffffffffff1673ffffffffffffffffffffffffffffffffffffffff163373ffffffffffffffffffffffffffffffffffffffff16146107bb576040517f08c379a00000000000000000000000000000000000000000000000000000000081526004016107b2906117ae565b60405180910390fd5b600060405180608001604052806001548152602001848152602001838152602001600081525090508060086000600154815260200190815260200160002060008201518160000155602082015181600101908051906020019061081f929190611159565b50604082015181600201908051906020019061083c929190611159565b5060608201518160030155905050600180600082825461085c91906118e4565b92505081905550505050565b60006040518060400160405280600560008873ffffffffffffffffffffffffffffffffffffffff1673ffffffffffffffffffffffffffffffffffffffff1681526020019081526020016000205481526020018673ffffffffffffffffffffffffffffffffffffffff16815250905060006006546040518060600160405280602b8152602001611ba6602b913980519060200120836000015184602001516040516020016109179392919061169d565b6040516020818303038152906040528051906020012060405160200161093e929190611630565b604051602081830303815290604052805190602001209050600073ffffffffffffffffffffffffffffffffffffffff168673ffffffffffffffffffffffffffffffffffffffff1614156109c6576040517f08c379a00000000000000000000000000000000000000000000000000000000081526004016109bd906117ce565b60405180910390fd5b600181848787604051600081526020016040526040516109e994939291906116d4565b6020604051602081039080840390855afa158015610a0b573d6000803e3d6000fd5b5050506020604051035173ffffffffffffffffffffffffffffffffffffffff168673ffffffffffffffffffffffffffffffffffffffff1614610a82576040517f08c379a0000000000000000000000000000000000000000000000000000000008152600401610a799061178e565b60405180910390fd5b60001515600760008873ffffffffffffffffffffffffffffffffffffffff1673ffffffffffffffffffffffffffffffffffffffff16815260200190815260200160002060020160149054906101000a900460ff16151514610ae257600080fd5b60011515600360009054906101000a900460ff16151514610b0257600080fd5b6001600860008981526020019081526020016000206003016000828254610b2991906118e4565b925050819055506001600760008873ffffffffffffffffffffffffffffffffffffffff1673ffffffffffffffffffffffffffffffffffffffff16815260200190815260200160002060020160146101000a81548160ff021916908315150217905550600560008773ffffffffffffffffffffffffffffffffffffffff1673ffffffffffffffffffffffffffffffffffffffff1681526020019081526020016000206000815480929190610bdb90611a41565b919050555050505050505050565b6000600154905090565b606060086000600a5481526020019081526020016000206001018054610c1890611a0f565b80601f0160208091040260200160405190810160405280929190818152602001828054610c4490611a0f565b8015610c915780601f10610c6657610100808354040283529160200191610c91565b820191906000526020600020905b815481529060010190602001808311610c7457829003601f168201915b5050505050905090565b60008054906101000a900473ffffffffffffffffffffffffffffffffffffffff1673ffffffffffffffffffffffffffffffffffffffff163373ffffffffffffffffffffffffffffffffffffffff1614610d29576040517f08c379a0000000000000000000000000000000000000000000000000000000008152600401610d20906117ae565b60405180910390fd5b6000600360006101000a81548160ff021916908315150217905550565b6008602052806000526040600020600091509050806000015490806001018054610d6f90611a0f565b80601f0160208091040260200160405190810160405280929190818152602001828054610d9b90611a0f565b8015610de85780601f10610dbd57610100808354040283529160200191610de8565b820191906000526020600020905b815481529060010190602001808311610dcb57829003601f168201915b505050505090806002018054610dfd90611a0f565b80601f0160208091040260200160405190810160405280929190818152602001828054610e2990611a0f565b8015610e765780601f10610e4b57610100808354040283529160200191610e76565b820191906000526020600020905b815481529060010190602001808311610e5957829003601f168201915b5050505050908060030154905084565b60008054906101000a900473ffffffffffffffffffffffffffffffffffffffff1673ffffffffffffffffffffffffffffffffffffffff163373ffffffffffffffffffffffffffffffffffffffff1614610f14576040517f08c379a0000000000000000000000000000000000000000000000000000000008152600401610f0b906117ae565b60405180910390fd5b6001600360006101000a81548160ff021916908315150217905550565b60056020528060005260406000206000915090505481565b60008060009054906101000a900473ffffffffffffffffffffffffffffffffffffffff16905090565b60008054906101000a900473ffffffffffffffffffffffffffffffffffffffff1673ffffffffffffffffffffffffffffffffffffffff163373ffffffffffffffffffffffffffffffffffffffff1614611000576040517f08c379a0000000000000000000000000000000000000000000000000000000008152600401610ff7906117ae565b60405180910390fd5b600060405180608001604052808681526020018581526020018473ffffffffffffffffffffffffffffffffffffffff168152602001831515815250905080600760008573ffffffffffffffffffffffffffffffffffffffff1673ffffffffffffffffffffffffffffffffffffffff1681526020019081526020016000206000820151816000019080519060200190611099929190611159565b5060208201518160010190805190602001906110b6929190611159565b5060408201518160020160006101000a81548173ffffffffffffffffffffffffffffffffffffffff021916908373ffffffffffffffffffffffffffffffffffffffff16021790555060608201518160020160146101000a81548160ff02191690831515021790555090505060016002600082825461113491906118e4565b925050819055505050505050565b6000600360009054906101000a900460ff16905090565b82805461116590611a0f565b90600052602060002090601f01602090048101928261118757600085556111ce565b82601f106111a057805160ff19168380011785556111ce565b828001600101855582156111ce579182015b828111156111cd5782518255916020019190600101906111b2565b5b5090506111db91906111df565b5090565b5b808211156111f85760008160009055506001016111e0565b5090565b600061120f61120a8461188d565b61185c565b90508281526020810184848401111561122757600080fd5b6112328482856119cd565b509392505050565b60008135905061124981611b32565b92915050565b60008135905061125e81611b49565b92915050565b60008135905061127381611b60565b92915050565b600082601f83011261128a57600080fd5b813561129a8482602086016111fc565b91505092915050565b6000813590506112b281611b77565b92915050565b6000813590506112c781611b8e565b92915050565b6000602082840312156112df57600080fd5b60006112ed8482850161123a565b91505092915050565b6000806040838503121561130957600080fd5b600083013567ffffffffffffffff81111561132357600080fd5b61132f85828601611279565b925050602083013567ffffffffffffffff81111561134c57600080fd5b61135885828601611279565b9150509250929050565b6000806000806080858703121561137857600080fd5b600085013567ffffffffffffffff81111561139257600080fd5b61139e87828801611279565b945050602085013567ffffffffffffffff8111156113bb57600080fd5b6113c787828801611279565b93505060406113d88782880161123a565b92505060606113e98782880161124f565b91505092959194509250565b60006020828403121561140757600080fd5b6000611415848285016112a3565b91505092915050565b600080600080600060a0868803121561143657600080fd5b6000611444888289016112a3565b95505060206114558882890161123a565b945050604061146688828901611264565b935050606061147788828901611264565b9250506080611488888289016112b8565b9150509295509295909350565b61149e8161196e565b82525050565b6114ad81611980565b82525050565b6114bc8161198c565b82525050565b6114d36114ce8261198c565b611a8a565b82525050565b60006114e4826118bd565b6114ee81856118c8565b93506114fe8185602086016119dc565b61150781611b21565b840191505092915050565b600061151f6012836118c8565b91507f696e76616c69642d7369676e61747572657300000000000000000000000000006000830152602082019050919050565b600061155f600a836118c8565b91507f6f6e6c79204f776e6572000000000000000000000000000000000000000000006000830152602082019050919050565b600061159f6002836118d9565b91507f19010000000000000000000000000000000000000000000000000000000000006000830152600282019050919050565b60006115df6011836118c8565b91507f696e76616c69642d616464726573732d300000000000000000000000000000006000830152602082019050919050565b61161b816119b6565b82525050565b61162a816119c0565b82525050565b600061163b82611592565b915061164782856114c2565b60208201915061165782846114c2565b6020820191508190509392505050565b600060208201905061167c6000830184611495565b92915050565b600060208201905061169760008301846114a4565b92915050565b60006060820190506116b260008301866114b3565b6116bf6020830185611612565b6116cc6040830184611495565b949350505050565b60006080820190506116e960008301876114b3565b6116f66020830186611621565b61170360408301856114b3565b61171060608301846114b3565b95945050505050565b6000602082019050818103600083015261173381846114d9565b905092915050565b6000608082019050818103600083015261175581876114d9565b9050818103602083015261176981866114d9565b90506117786040830185611495565b61178560608301846114a4565b95945050505050565b600060208201905081810360008301526117a781611512565b9050919050565b600060208201905081810360008301526117c781611552565b9050919050565b600060208201905081810360008301526117e7816115d2565b9050919050565b60006020820190506118036000830184611612565b92915050565b600060808201905061181e6000830187611612565b818103602083015261183081866114d9565b9050818103604083015261184481856114d9565b90506118536060830184611612565b95945050505050565b6000604051905081810181811067ffffffffffffffff8211171561188357611882611af2565b5b8060405250919050565b600067ffffffffffffffff8211156118a8576118a7611af2565b5b601f19601f8301169050602081019050919050565b600081519050919050565b600082825260208201905092915050565b600081905092915050565b60006118ef826119b6565b91506118fa836119b6565b9250827fffffffffffffffffffffffffffffffffffffffffffffffffffffffffffffffff0382111561192f5761192e611a94565b5b828201905092915050565b6000611945826119b6565b9150611950836119b6565b92508282101561196357611962611a94565b5b828203905092915050565b600061197982611996565b9050919050565b60008115159050919050565b6000819050919050565b600073ffffffffffffffffffffffffffffffffffffffff82169050919050565b6000819050919050565b600060ff82169050919050565b82818337600083830152505050565b60005b838110156119fa5780820151818401526020810190506119df565b83811115611a09576000848401525b50505050565b60006002820490506001821680611a2757607f821691505b60208210811415611a3b57611a3a611ac3565b5b50919050565b6000611a4c826119b6565b91507fffffffffffffffffffffffffffffffffffffffffffffffffffffffffffffffff821415611a7f57611a7e611a94565b5b600182019050919050565b6000819050919050565b7f4e487b7100000000000000000000000000000000000000000000000000000000600052601160045260246000fd5b7f4e487b7100000000000000000000000000000000000000000000000000000000600052602260045260246000fd5b7f4e487b7100000000000000000000000000000000000000000000000000000000600052604160045260246000fd5b6000601f19601f8301169050919050565b611b3b8161196e565b8114611b4657600080fd5b50565b611b5281611980565b8114611b5d57600080fd5b50565b611b698161198c565b8114611b7457600080fd5b50565b611b80816119b6565b8114611b8b57600080fd5b50565b611b97816119c0565b8114611ba257600080fd5b5056fe4d6574615472616e73616374696f6e2875696e74323536206e6f6e63652c616464726573732066726f6d29a26469706673582212204ed79ff9981cfa4499f9c88d7e043d72c3ee66692d5a8009ec7e39f2f10bd07d64736f6c63430008000033454950373132446f6d61696e28737472696e67206e616d652c737472696e672076657273696f6e2c75696e7432353620636861696e49642c6164647265737320766572696679696e67436f6e747261637429",
  "immutableReferences": {},
  "source": "pragma solidity >=0.6.0 <0.9.0;\r\n\r\n// SPDX-License-Identifier: MIT\r\n\r\ncontract VotingContract {\r\n    address owner;\r\n\r\n    uint256 candidateCount = 0;\r\n\r\n    uint256 voterCount = 0;\r\n\r\n    bool start;\r\n\r\n    string pollName;\r\n\r\n    //Struct\r\n    struct EIP712Domain {\r\n        string name;\r\n        string version;\r\n        uint256 chainId;\r\n        address verifyingContract;\r\n    }\r\n\r\n    struct MetaTransaction {\r\n        uint256 nonce;\r\n        address from;\r\n    }\r\n\r\n    mapping(address => uint256) public nonces;\r\n\r\n    bytes32 internal constant EIP712_DOMAIN_TYPEHASH =\r\n        keccak256(\r\n            bytes(\r\n                \"EIP712Domain(string name,string version,uint256 chainId,address verifyingContract)\"\r\n            )\r\n        );\r\n    bytes32 internal constant META_TRANSACTION_TYPEHASH =\r\n        keccak256(bytes(\"MetaTransaction(uint256 nonce,address from)\"));\r\n    bytes32 internal DOMAIN_SEPARATOR =\r\n        keccak256(\r\n            abi.encode(\r\n                EIP712_DOMAIN_TYPEHASH,\r\n                keccak256(bytes(\"Quote\")),\r\n                keccak256(bytes(\"1\")),\r\n                4, // Rinkeby\r\n                address(this)\r\n            )\r\n        );\r\n    // Struct of a voter\r\n    struct Voter {\r\n        string name;\r\n        string voterId; // Roll number or any other number\r\n        address voterAddress; // Wallet address\r\n        bool hasVoted;\r\n    }\r\n\r\n    mapping(address => Voter) public voterAddresses;\r\n\r\n    // Struct of a candidate\r\n    struct Candidate {\r\n        uint256 candidateId;\r\n        string name;\r\n        string details; // manifesto or any other description\r\n        uint256 voteCount; // the number of votes he got\r\n    }\r\n\r\n    mapping(uint256 => Candidate) public candidateDetails;\r\n\r\n    uint256[] private candidateVote;\r\n\r\n    // Modifier for letting only the owner to add candidates\r\n    modifier onlyOwner() {\r\n        require(msg.sender == owner, \"only Owner\");\r\n        _;\r\n    }\r\n\r\n    constructor() public {\r\n        owner = msg.sender;\r\n    }\r\n\r\n    // function to add a new candidate\r\n    function addCandidate(string memory _name, string memory _details)\r\n        public\r\n        onlyOwner\r\n    {\r\n        Candidate memory newCandidate = Candidate({\r\n            candidateId: candidateCount,\r\n            name: _name,\r\n            details: _details,\r\n            voteCount: 0\r\n        });\r\n\r\n        candidateDetails[candidateCount] = newCandidate;\r\n\r\n        candidateCount += 1;\r\n    }\r\n\r\n    // function to add voter\r\n    // only suitable for a local blockchain\r\n    function manualAddVoter(\r\n        string memory _name,\r\n        string memory _voterId,\r\n        address _voterAddress,\r\n        bool _hasVoted\r\n    ) public onlyOwner {\r\n        Voter memory newVoter = Voter({\r\n            name: _name,\r\n            voterId: _voterId,\r\n            voterAddress: _voterAddress,\r\n            hasVoted: _hasVoted\r\n        });\r\n\r\n        voterAddresses[_voterAddress] = newVoter;\r\n\r\n        voterCount += 1;\r\n    }\r\n\r\n    // actual function to add voters shouldbe done by an oracle\r\n    // work on this later\r\n\r\n    // the actual voting function\r\n    function vote(uint256 _candidateId) public {\r\n        require(voterAddresses[msg.sender].hasVoted == false);\r\n        require(start == true);\r\n        candidateDetails[_candidateId].voteCount += 1;\r\n        voterAddresses[msg.sender].hasVoted = true;\r\n    }\r\n\r\n    //voting function for meta transaction\r\n    function voteMeta(\r\n        uint256 _candidateId,\r\n        address userAddress,\r\n        bytes32 r,\r\n        bytes32 s,\r\n        uint8 v\r\n    ) public {\r\n        MetaTransaction memory metaTx = MetaTransaction({\r\n            nonce: nonces[userAddress],\r\n            from: userAddress\r\n        });\r\n\r\n        bytes32 digest = keccak256(\r\n            abi.encodePacked(\r\n                \"\\x19\\x01\",\r\n                DOMAIN_SEPARATOR,\r\n                keccak256(\r\n                    abi.encode(\r\n                        META_TRANSACTION_TYPEHASH,\r\n                        metaTx.nonce,\r\n                        metaTx.from\r\n                    )\r\n                )\r\n            )\r\n        );\r\n\r\n        require(userAddress != address(0), \"invalid-address-0\");\r\n        require(\r\n            userAddress == ecrecover(digest, v, r, s),\r\n            \"invalid-signatures\"\r\n        );\r\n        require(voterAddresses[userAddress].hasVoted == false);\r\n        require(start == true);\r\n        candidateDetails[_candidateId].voteCount += 1;\r\n        voterAddresses[userAddress].hasVoted = true;\r\n        nonces[userAddress]++;\r\n    }\r\n\r\n    // onlyOwner function for starting the election\r\n    function startElection() public onlyOwner {\r\n        start = true;\r\n    }\r\n\r\n    // onlyOwner function to end election\r\n    function endEelection() public onlyOwner {\r\n        start = false;\r\n    }\r\n\r\n    // public function to view election status (use this in dashboard)\r\n    function electionStatus() public view returns (bool) {\r\n        return (start);\r\n    }\r\n\r\n    uint256 winner = 0;\r\n\r\n    // function to view election results\r\n    function electionResults() public onlyOwner returns (uint256) {\r\n        require(start == false);\r\n\r\n        for (uint256 i = 0; i < candidateCount; i++) {\r\n            candidateVote.push(candidateDetails[i].voteCount);\r\n        }\r\n        for (uint256 i = 1; i < candidateCount; i++) {\r\n            if (candidateVote[i] > candidateVote[i - 1]) {\r\n                winner = i;\r\n            }\r\n        }\r\n        return winner;\r\n    }\r\n\r\n    function viewWinner() public view returns (string memory) {\r\n        return candidateDetails[winner].name;\r\n    }\r\n\r\n    // get total number of voters\r\n    function getVoterCount() public view returns (uint256) {\r\n        return voterCount;\r\n    }\r\n\r\n    function getOwner() public view returns (address) {\r\n        return owner;\r\n    }\r\n\r\n    function getCandidateCount() public view returns (uint256) {\r\n        return candidateCount;\r\n    }\r\n}\r\n",
  "sourcePath": "C:\\Users\\Hp\\Desktop\\Blockchain-cfi\\contracts\\VotingContract.sol",
  "compiler": {
    "name": "solc",
    "version": "0.8.0+commit.c7dfd78e.Emscripten.clang"
  },
  "schemaVersion": "3.4.5",
  "updatedAt": "2022-03-12T19:11:49.274Z",
  "networkType": "ethereum",
  "devdoc": {
    "kind": "dev",
    "methods": {},
    "version": 1
  },
  "userdoc": {
    "kind": "user",
    "methods": {},
    "version": 1
  }
}