{
  "contractName": "VotingContract",
  "abi": [
    {
      "inputs": [
        {
          "internalType": "string",
          "name": "_pollName",
          "type": "string"
        }
      ],
      "stateMutability": "nonpayable",
      "type": "constructor"
    },
    {
      "inputs": [
        {
          "internalType": "string",
          "name": "_name",
          "type": "string"
        },
        {
          "internalType": "string",
          "name": "_details",
          "type": "string"
        }
      ],
      "name": "addCandidate",
      "outputs": [],
      "stateMutability": "nonpayable",
      "type": "function"
    },
    {
      "inputs": [
        {
          "internalType": "string",
          "name": "_name",
          "type": "string"
        },
        {
          "internalType": "string",
          "name": "_voterId",
          "type": "string"
        },
        {
          "internalType": "address",
          "name": "_voterAddress",
          "type": "address"
        },
        {
          "internalType": "bool",
          "name": "_hasVoted",
          "type": "bool"
        }
      ],
      "name": "manualAddVoter",
      "outputs": [],
      "stateMutability": "nonpayable",
      "type": "function"
    },
    {
      "inputs": [
        {
          "internalType": "uint256",
          "name": "_candidateId",
          "type": "uint256"
        }
      ],
      "name": "vote",
      "outputs": [],
      "stateMutability": "nonpayable",
      "type": "function"
    },
    {
      "inputs": [],
      "name": "startElection",
      "outputs": [],
      "stateMutability": "nonpayable",
      "type": "function"
    },
    {
      "inputs": [],
      "name": "endEelection",
      "outputs": [],
      "stateMutability": "nonpayable",
      "type": "function"
    },
    {
      "inputs": [],
      "name": "electionStatus",
      "outputs": [
        {
          "internalType": "bool",
          "name": "",
          "type": "bool"
        }
      ],
      "stateMutability": "view",
      "type": "function"
    },
    {
      "inputs": [],
      "name": "electionResults",
      "outputs": [
        {
          "internalType": "uint256",
          "name": "",
          "type": "uint256"
        }
      ],
      "stateMutability": "nonpayable",
      "type": "function"
    },
    {
      "inputs": [],
      "name": "viewWinner",
      "outputs": [
        {
          "internalType": "string",
          "name": "",
          "type": "string"
        }
      ],
      "stateMutability": "view",
      "type": "function"
    },
    {
      "inputs": [],
      "name": "getVoterCount",
      "outputs": [
        {
          "internalType": "uint256",
          "name": "",
          "type": "uint256"
        }
      ],
      "stateMutability": "view",
      "type": "function"
    }
  ],
  "bytecode": "0x60806040526000600155600060025560006008553480156200002057600080fd5b5060405162001384380380620013848339818101604052810190620000469190620001c8565b336000806101000a81548173ffffffffffffffffffffffffffffffffffffffff021916908373ffffffffffffffffffffffffffffffffffffffff16021790555080600490805190602001906200009e929190620000a6565b50506200033e565b828054620000b490620002aa565b90600052602060002090601f016020900481019282620000d8576000855562000124565b82601f10620000f357805160ff191683800117855562000124565b8280016001018555821562000124579182015b828111156200012357825182559160200191906001019062000106565b5b50905062000133919062000137565b5090565b5b808211156200015257600081600090555060010162000138565b5090565b60006200016d620001678462000241565b6200020d565b9050828152602081018484840111156200018657600080fd5b6200019384828562000274565b509392505050565b600082601f830112620001ad57600080fd5b8151620001bf84826020860162000156565b91505092915050565b600060208284031215620001db57600080fd5b600082015167ffffffffffffffff811115620001f657600080fd5b62000204848285016200019b565b91505092915050565b6000604051905081810181811067ffffffffffffffff821117156200023757620002366200030f565b5b8060405250919050565b600067ffffffffffffffff8211156200025f576200025e6200030f565b5b601f19601f8301169050602081019050919050565b60005b838110156200029457808201518184015260208101905062000277565b83811115620002a4576000848401525b50505050565b60006002820490506001821680620002c357607f821691505b60208210811415620002da57620002d9620002e0565b5b50919050565b7f4e487b7100000000000000000000000000000000000000000000000000000000600052602260045260246000fd5b7f4e487b7100000000000000000000000000000000000000000000000000000000600052604160045260246000fd5b611036806200034e6000396000f3fe608060405234801561001057600080fd5b50600436106100935760003560e01c8063392e240311610066578063392e24031461010c5780633fe1be431461012a57806362d73eb814610134578063b416ecba1461013e578063eaef03491461015a57610093565b80630121b93f1461009857806308670f4f146100b457806311174a29146100d257806326541b56146100f0575b600080fd5b6100b260048036038101906100ad9190610bd9565b610178565b005b6100bc610284565b6040516100c99190610cf6565b60405180910390f35b6100da610466565b6040516100e79190610cf6565b60405180910390f35b61010a60048036038101906101059190610ada565b610470565b005b6101146105ab565b6040516101219190610cb4565b60405180910390f35b610132610653565b005b61013c6106fe565b005b61015860048036038101906101539190610b46565b6107a9565b005b610162610979565b60405161016f9190610c99565b60405180910390f35b60001515600560003373ffffffffffffffffffffffffffffffffffffffff1673ffffffffffffffffffffffffffffffffffffffff16815260200190815260200160002060020160149054906101000a900460ff161515146101d857600080fd5b60011515600360009054906101000a900460ff161515146101f857600080fd5b600160066000838152602001908152602001600020600301600082825461021f9190610d8e565b925050819055506001600560003373ffffffffffffffffffffffffffffffffffffffff1673ffffffffffffffffffffffffffffffffffffffff16815260200190815260200160002060020160146101000a81548160ff02191690831515021790555050565b60008060009054906101000a900473ffffffffffffffffffffffffffffffffffffffff1673ffffffffffffffffffffffffffffffffffffffff163373ffffffffffffffffffffffffffffffffffffffff1614610315576040517f08c379a000000000000000000000000000000000000000000000000000000000815260040161030c90610cd6565b60405180910390fd5b60001515600360009054906101000a900460ff1615151461033557600080fd5b60005b60015481101561039457600760066000838152602001908152602001600020600301549080600181540180825580915050600190039060005260206000200160009091909190915055808061038c90610ed4565b915050610338565b506000600190505b60015481101561045d5760076001826103b59190610de4565b815481106103ec577f4e487b7100000000000000000000000000000000000000000000000000000000600052603260045260246000fd5b906000526020600020015460078281548110610431577f4e487b7100000000000000000000000000000000000000000000000000000000600052603260045260246000fd5b9060005260206000200154111561044a57806008819055505b808061045590610ed4565b91505061039c565b50600854905090565b6000600254905090565b60008054906101000a900473ffffffffffffffffffffffffffffffffffffffff1673ffffffffffffffffffffffffffffffffffffffff163373ffffffffffffffffffffffffffffffffffffffff16146104fe576040517f08c379a00000000000000000000000000000000000000000000000000000000081526004016104f590610cd6565b60405180910390fd5b6000604051806080016040528060015481526020018481526020018381526020016000815250905080600660006001548152602001908152602001600020600082015181600001556020820151816001019080519060200190610562929190610990565b50604082015181600201908051906020019061057f929190610990565b5060608201518160030155905050600180600082825461059f9190610d8e565b92505081905550505050565b606060066000600854815260200190815260200160002060010180546105d090610ea2565b80601f01602080910402602001604051908101604052809291908181526020018280546105fc90610ea2565b80156106495780601f1061061e57610100808354040283529160200191610649565b820191906000526020600020905b81548152906001019060200180831161062c57829003601f168201915b5050505050905090565b60008054906101000a900473ffffffffffffffffffffffffffffffffffffffff1673ffffffffffffffffffffffffffffffffffffffff163373ffffffffffffffffffffffffffffffffffffffff16146106e1576040517f08c379a00000000000000000000000000000000000000000000000000000000081526004016106d890610cd6565b60405180910390fd5b6000600360006101000a81548160ff021916908315150217905550565b60008054906101000a900473ffffffffffffffffffffffffffffffffffffffff1673ffffffffffffffffffffffffffffffffffffffff163373ffffffffffffffffffffffffffffffffffffffff161461078c576040517f08c379a000000000000000000000000000000000000000000000000000000000815260040161078390610cd6565b60405180910390fd5b6001600360006101000a81548160ff021916908315150217905550565b60008054906101000a900473ffffffffffffffffffffffffffffffffffffffff1673ffffffffffffffffffffffffffffffffffffffff163373ffffffffffffffffffffffffffffffffffffffff1614610837576040517f08c379a000000000000000000000000000000000000000000000000000000000815260040161082e90610cd6565b60405180910390fd5b600060405180608001604052808681526020018581526020018473ffffffffffffffffffffffffffffffffffffffff168152602001831515815250905080600560008573ffffffffffffffffffffffffffffffffffffffff1673ffffffffffffffffffffffffffffffffffffffff16815260200190815260200160002060008201518160000190805190602001906108d0929190610990565b5060208201518160010190805190602001906108ed929190610990565b5060408201518160020160006101000a81548173ffffffffffffffffffffffffffffffffffffffff021916908373ffffffffffffffffffffffffffffffffffffffff16021790555060608201518160020160146101000a81548160ff02191690831515021790555090505060016002600082825461096b9190610d8e565b925050819055505050505050565b6000600360009054906101000a900460ff16905090565b82805461099c90610ea2565b90600052602060002090601f0160209004810192826109be5760008555610a05565b82601f106109d757805160ff1916838001178555610a05565b82800160010185558215610a05579182015b82811115610a045782518255916020019190600101906109e9565b5b509050610a129190610a16565b5090565b5b80821115610a2f576000816000905550600101610a17565b5090565b6000610a46610a4184610d42565b610d11565b905082815260208101848484011115610a5e57600080fd5b610a69848285610e60565b509392505050565b600081359050610a8081610fbb565b92915050565b600081359050610a9581610fd2565b92915050565b600082601f830112610aac57600080fd5b8135610abc848260208601610a33565b91505092915050565b600081359050610ad481610fe9565b92915050565b60008060408385031215610aed57600080fd5b600083013567ffffffffffffffff811115610b0757600080fd5b610b1385828601610a9b565b925050602083013567ffffffffffffffff811115610b3057600080fd5b610b3c85828601610a9b565b9150509250929050565b60008060008060808587031215610b5c57600080fd5b600085013567ffffffffffffffff811115610b7657600080fd5b610b8287828801610a9b565b945050602085013567ffffffffffffffff811115610b9f57600080fd5b610bab87828801610a9b565b9350506040610bbc87828801610a71565b9250506060610bcd87828801610a86565b91505092959194509250565b600060208284031215610beb57600080fd5b6000610bf984828501610ac5565b91505092915050565b610c0b81610e2a565b82525050565b6000610c1c82610d72565b610c268185610d7d565b9350610c36818560208601610e6f565b610c3f81610faa565b840191505092915050565b6000610c57600a83610d7d565b91507f6f6e6c79204f776e6572000000000000000000000000000000000000000000006000830152602082019050919050565b610c9381610e56565b82525050565b6000602082019050610cae6000830184610c02565b92915050565b60006020820190508181036000830152610cce8184610c11565b905092915050565b60006020820190508181036000830152610cef81610c4a565b9050919050565b6000602082019050610d0b6000830184610c8a565b92915050565b6000604051905081810181811067ffffffffffffffff82111715610d3857610d37610f7b565b5b8060405250919050565b600067ffffffffffffffff821115610d5d57610d5c610f7b565b5b601f19601f8301169050602081019050919050565b600081519050919050565b600082825260208201905092915050565b6000610d9982610e56565b9150610da483610e56565b9250827fffffffffffffffffffffffffffffffffffffffffffffffffffffffffffffffff03821115610dd957610dd8610f1d565b5b828201905092915050565b6000610def82610e56565b9150610dfa83610e56565b925082821015610e0d57610e0c610f1d565b5b828203905092915050565b6000610e2382610e36565b9050919050565b60008115159050919050565b600073ffffffffffffffffffffffffffffffffffffffff82169050919050565b6000819050919050565b82818337600083830152505050565b60005b83811015610e8d578082015181840152602081019050610e72565b83811115610e9c576000848401525b50505050565b60006002820490506001821680610eba57607f821691505b60208210811415610ece57610ecd610f4c565b5b50919050565b6000610edf82610e56565b91507fffffffffffffffffffffffffffffffffffffffffffffffffffffffffffffffff821415610f1257610f11610f1d565b5b600182019050919050565b7f4e487b7100000000000000000000000000000000000000000000000000000000600052601160045260246000fd5b7f4e487b7100000000000000000000000000000000000000000000000000000000600052602260045260246000fd5b7f4e487b7100000000000000000000000000000000000000000000000000000000600052604160045260246000fd5b6000601f19601f8301169050919050565b610fc481610e18565b8114610fcf57600080fd5b50565b610fdb81610e2a565b8114610fe657600080fd5b50565b610ff281610e56565b8114610ffd57600080fd5b5056fea2646970667358221220c494cbfa04bdda7dcf7d07001413f5d918475238b2531e07cc634df3eb39857964736f6c63430008000033",
  "immutableReferences": {},
  "source": "pragma solidity >=0.6.0 <0.9.0;\r\n\r\n\r\n// SPDX-License-Identifier: MIT\r\n\r\ncontract VotingContract {\r\n    address owner;\r\n\r\n    uint256 candidateCount = 0;\r\n\r\n    uint256 voterCount = 0;\r\n\r\n    bool start;\r\n\r\n    string pollName;\r\n\r\n    // Struct of a voter\r\n    struct Voter {\r\n        string name;\r\n        string voterId; // Roll number or any other number\r\n        address voterAddress; // Wallet address\r\n        bool hasVoted;\r\n    }\r\n\r\n    mapping(address => Voter) private voterAddresses;\r\n\r\n    // Struct of a candidate\r\n    struct Candidate {\r\n        uint256 candidateId;\r\n        string name;\r\n        string details; // manifesto or any other description\r\n        uint256 voteCount; // the number of votes he got\r\n    }\r\n\r\n    mapping(uint => Candidate) private candidateDetails;\r\n\r\n    uint [] private candidateVote;\r\n\r\n    // Modifier for letting only the owner to add candidates\r\n    modifier onlyOwner{\r\n        require(msg.sender == owner, \"only Owner\");\r\n        _;\r\n    }   \r\n\r\n    constructor(string memory _pollName) {\r\n        owner = msg.sender;\r\n        pollName = _pollName;\r\n    }\r\n\r\n    // function to add a new candidate\r\n    function addCandidate(string memory _name, string memory _details)\r\n        public\r\n        onlyOwner\r\n    {\r\n        Candidate memory newCandidate = Candidate({\r\n            candidateId: candidateCount,\r\n            name: _name,\r\n            details: _details,\r\n            voteCount: 0\r\n        });\r\n\r\n        candidateDetails[candidateCount] = newCandidate;\r\n\r\n        candidateCount += 1;\r\n    }\r\n\r\n    // function to add voter\r\n    // only suitable for a local blockchain\r\n    function manualAddVoter(\r\n        string memory _name,\r\n        string memory _voterId,\r\n        address _voterAddress,\r\n        bool _hasVoted\r\n    ) public onlyOwner {\r\n        Voter memory newVoter = Voter({\r\n            name: _name,\r\n            voterId: _voterId,\r\n            voterAddress: _voterAddress,\r\n            hasVoted: _hasVoted\r\n        });\r\n\r\n        voterAddresses[_voterAddress] = newVoter;\r\n\r\n        voterCount += 1;\r\n    }\r\n\r\n    // actual function to add voters shouldbe done by an oracle\r\n    // work on this later\r\n\r\n    // the actual voting function\r\n    function vote(uint256 _candidateId) public {\r\n        require(voterAddresses[msg.sender].hasVoted == false);\r\n        require(start == true);\r\n        candidateDetails[_candidateId].voteCount += 1;\r\n        voterAddresses[msg.sender].hasVoted = true;\r\n    }\r\n\r\n    // onlyOwner function for starting the election\r\n    function startElection() public onlyOwner {\r\n        start = true;\r\n    }\r\n\r\n    // onlyOwner function to end election\r\n    function endEelection() public onlyOwner {\r\n        start = false;\r\n    }\r\n\r\n    // public function to view election status (use this in dashboard)\r\n    function electionStatus() public view returns (bool) {\r\n        return (start);\r\n    }\r\n    uint winner=0;\r\n    // function to view election results\r\n    function electionResults() public onlyOwner returns (uint) {\r\n        require(start == false);\r\n        \r\n        for(uint i=0; i<candidateCount; i++){\r\n            candidateVote.push(candidateDetails[i].voteCount);\r\n        }\r\n        for(uint i=1; i<candidateCount; i++){\r\n            if(candidateVote[i]>candidateVote[i-1]){\r\n                winner=i;\r\n            }\r\n        }\r\n        return winner;\r\n        \r\n        \r\n    }\r\n    function viewWinner() public view returns(string memory){\r\n        return candidateDetails[winner].name;\r\n    }\r\n\r\n    // get total number of voters\r\n    function getVoterCount() public view returns (uint) {\r\n        return voterCount;\r\n}\r\n}",
  "sourcePath": "C:\\Users\\Hp\\Desktop\\Blockchain-cfi\\contracts\\Voting.sol",
  "compiler": {
    "name": "solc",
    "version": "0.8.0+commit.c7dfd78e.Emscripten.clang"
  },
  "schemaVersion": "3.4.5",
  "updatedAt": "2022-03-07T12:41:41.331Z",
  "devdoc": {
    "kind": "dev",
    "methods": {},
    "version": 1
  },
  "userdoc": {
    "kind": "user",
    "methods": {},
    "version": 1
  }
}