{
  "contractName": "VotingContract",
  "abi": [
    {
      "inputs": [],
      "stateMutability": "nonpayable",
      "type": "constructor"
    },
    {
      "inputs": [
        {
          "internalType": "uint256",
          "name": "",
          "type": "uint256"
        }
      ],
      "name": "candidateDetails",
      "outputs": [
        {
          "internalType": "uint256",
          "name": "candidateId",
          "type": "uint256"
        },
        {
          "internalType": "string",
          "name": "name",
          "type": "string"
        },
        {
          "internalType": "string",
          "name": "details",
          "type": "string"
        },
        {
          "internalType": "uint256",
          "name": "voteCount",
          "type": "uint256"
        }
      ],
      "stateMutability": "view",
      "type": "function",
      "constant": true
    },
    {
      "inputs": [
        {
          "internalType": "address",
          "name": "",
          "type": "address"
        }
      ],
      "name": "voterAddresses",
      "outputs": [
        {
          "internalType": "string",
          "name": "name",
          "type": "string"
        },
        {
          "internalType": "string",
          "name": "voterId",
          "type": "string"
        },
        {
          "internalType": "address",
          "name": "voterAddress",
          "type": "address"
        },
        {
          "internalType": "bool",
          "name": "hasVoted",
          "type": "bool"
        }
      ],
      "stateMutability": "view",
      "type": "function",
      "constant": true
    },
    {
      "inputs": [
        {
          "internalType": "string",
          "name": "_name",
          "type": "string"
        },
        {
          "internalType": "string",
          "name": "_details",
          "type": "string"
        }
      ],
      "name": "addCandidate",
      "outputs": [],
      "stateMutability": "nonpayable",
      "type": "function"
    },
    {
      "inputs": [
        {
          "internalType": "string",
          "name": "_name",
          "type": "string"
        },
        {
          "internalType": "string",
          "name": "_voterId",
          "type": "string"
        },
        {
          "internalType": "address",
          "name": "_voterAddress",
          "type": "address"
        },
        {
          "internalType": "bool",
          "name": "_hasVoted",
          "type": "bool"
        }
      ],
      "name": "manualAddVoter",
      "outputs": [],
      "stateMutability": "nonpayable",
      "type": "function"
    },
    {
      "inputs": [
        {
          "internalType": "uint256",
          "name": "_candidateId",
          "type": "uint256"
        }
      ],
      "name": "vote",
      "outputs": [],
      "stateMutability": "nonpayable",
      "type": "function"
    },
    {
      "inputs": [],
      "name": "startElection",
      "outputs": [],
      "stateMutability": "nonpayable",
      "type": "function"
    },
    {
      "inputs": [],
      "name": "endEelection",
      "outputs": [],
      "stateMutability": "nonpayable",
      "type": "function"
    },
    {
      "inputs": [],
      "name": "electionStatus",
      "outputs": [
        {
          "internalType": "bool",
          "name": "",
          "type": "bool"
        }
      ],
      "stateMutability": "view",
      "type": "function",
      "constant": true
    },
    {
      "inputs": [],
      "name": "electionResults",
      "outputs": [
        {
          "internalType": "uint256",
          "name": "",
          "type": "uint256"
        }
      ],
      "stateMutability": "nonpayable",
      "type": "function"
    },
    {
      "inputs": [],
      "name": "viewWinner",
      "outputs": [
        {
          "internalType": "string",
          "name": "",
          "type": "string"
        }
      ],
      "stateMutability": "view",
      "type": "function",
      "constant": true
    },
    {
      "inputs": [],
      "name": "getVoterCount",
      "outputs": [
        {
          "internalType": "uint256",
          "name": "",
          "type": "uint256"
        }
      ],
      "stateMutability": "view",
      "type": "function",
      "constant": true
    },
    {
      "inputs": [],
      "name": "getOwner",
      "outputs": [
        {
          "internalType": "address",
          "name": "",
          "type": "address"
        }
      ],
      "stateMutability": "view",
      "type": "function",
      "constant": true
    },
    {
      "inputs": [],
      "name": "getCandidateCount",
      "outputs": [
        {
          "internalType": "uint256",
          "name": "",
          "type": "uint256"
        }
      ],
      "stateMutability": "view",
      "type": "function",
      "constant": true
    }
  ],
  "bytecode": "0x608060405260006001556000600255600060085534801561001f57600080fd5b50336000806101000a81548173ffffffffffffffffffffffffffffffffffffffff021916908373ffffffffffffffffffffffffffffffffffffffff1602179055506114ed8061006f6000396000f3fe608060405234801561001057600080fd5b50600436106100cf5760003560e01c8063392e24031161008c57806362d73eb81161006657806362d73eb8146101f4578063893d20e8146101fe578063b416ecba1461021c578063eaef034914610238576100cf565b8063392e2403146101995780633fe1be43146101b75780636247e532146101c1576100cf565b80630121b93f146100d457806303727283146100f057806308670f4f1461012357806311174a291461014157806326541b561461015f57806330a563471461017b575b600080fd5b6100ee60048036038101906100e99190610fc0565b610256565b005b61010a60048036038101906101059190610e98565b610362565b60405161011a94939291906110e7565b60405180910390f35b61012b6104cf565b604051610138919061115a565b60405180910390f35b6101496106b1565b604051610156919061115a565b60405180910390f35b61017960048036038101906101749190610ec1565b6106bb565b005b6101836107f6565b604051610190919061115a565b60405180910390f35b6101a1610800565b6040516101ae91906110c5565b60405180910390f35b6101bf6108a8565b005b6101db60048036038101906101d69190610fc0565b610953565b6040516101eb9493929190611175565b60405180910390f35b6101fc610a93565b005b610206610b3e565b604051610213919061108f565b60405180910390f35b61023660048036038101906102319190610f2d565b610b67565b005b610240610d37565b60405161024d91906110aa565b60405180910390f35b60001515600560003373ffffffffffffffffffffffffffffffffffffffff1673ffffffffffffffffffffffffffffffffffffffff16815260200190815260200160002060020160149054906101000a900460ff161515146102b657600080fd5b60011515600360009054906101000a900460ff161515146102d657600080fd5b60016006600083815260200190815260200160002060030160008282546102fd9190611245565b925050819055506001600560003373ffffffffffffffffffffffffffffffffffffffff1673ffffffffffffffffffffffffffffffffffffffff16815260200190815260200160002060020160146101000a81548160ff02191690831515021790555050565b600560205280600052604060002060009150905080600001805461038590611359565b80601f01602080910402602001604051908101604052809291908181526020018280546103b190611359565b80156103fe5780601f106103d3576101008083540402835291602001916103fe565b820191906000526020600020905b8154815290600101906020018083116103e157829003601f168201915b50505050509080600101805461041390611359565b80601f016020809104026020016040519081016040528092919081815260200182805461043f90611359565b801561048c5780601f106104615761010080835404028352916020019161048c565b820191906000526020600020905b81548152906001019060200180831161046f57829003601f168201915b5050505050908060020160009054906101000a900473ffffffffffffffffffffffffffffffffffffffff16908060020160149054906101000a900460ff16905084565b60008060009054906101000a900473ffffffffffffffffffffffffffffffffffffffff1673ffffffffffffffffffffffffffffffffffffffff163373ffffffffffffffffffffffffffffffffffffffff1614610560576040517f08c379a00000000000000000000000000000000000000000000000000000000081526004016105579061113a565b60405180910390fd5b60001515600360009054906101000a900460ff1615151461058057600080fd5b60005b6001548110156105df5760076006600083815260200190815260200160002060030154908060018154018082558091505060019003906000526020600020016000909190919091505580806105d79061138b565b915050610583565b506000600190505b6001548110156106a8576007600182610600919061129b565b81548110610637577f4e487b7100000000000000000000000000000000000000000000000000000000600052603260045260246000fd5b90600052602060002001546007828154811061067c577f4e487b7100000000000000000000000000000000000000000000000000000000600052603260045260246000fd5b9060005260206000200154111561069557806008819055505b80806106a09061138b565b9150506105e7565b50600854905090565b6000600254905090565b60008054906101000a900473ffffffffffffffffffffffffffffffffffffffff1673ffffffffffffffffffffffffffffffffffffffff163373ffffffffffffffffffffffffffffffffffffffff1614610749576040517f08c379a00000000000000000000000000000000000000000000000000000000081526004016107409061113a565b60405180910390fd5b60006040518060800160405280600154815260200184815260200183815260200160008152509050806006600060015481526020019081526020016000206000820151816000015560208201518160010190805190602001906107ad929190610d4e565b5060408201518160020190805190602001906107ca929190610d4e565b506060820151816003015590505060018060008282546107ea9190611245565b92505081905550505050565b6000600154905090565b6060600660006008548152602001908152602001600020600101805461082590611359565b80601f016020809104026020016040519081016040528092919081815260200182805461085190611359565b801561089e5780601f106108735761010080835404028352916020019161089e565b820191906000526020600020905b81548152906001019060200180831161088157829003601f168201915b5050505050905090565b60008054906101000a900473ffffffffffffffffffffffffffffffffffffffff1673ffffffffffffffffffffffffffffffffffffffff163373ffffffffffffffffffffffffffffffffffffffff1614610936576040517f08c379a000000000000000000000000000000000000000000000000000000000815260040161092d9061113a565b60405180910390fd5b6000600360006101000a81548160ff021916908315150217905550565b600660205280600052604060002060009150905080600001549080600101805461097c90611359565b80601f01602080910402602001604051908101604052809291908181526020018280546109a890611359565b80156109f55780601f106109ca576101008083540402835291602001916109f5565b820191906000526020600020905b8154815290600101906020018083116109d857829003601f168201915b505050505090806002018054610a0a90611359565b80601f0160208091040260200160405190810160405280929190818152602001828054610a3690611359565b8015610a835780601f10610a5857610100808354040283529160200191610a83565b820191906000526020600020905b815481529060010190602001808311610a6657829003601f168201915b5050505050908060030154905084565b60008054906101000a900473ffffffffffffffffffffffffffffffffffffffff1673ffffffffffffffffffffffffffffffffffffffff163373ffffffffffffffffffffffffffffffffffffffff1614610b21576040517f08c379a0000000000000000000000000000000000000000000000000000000008152600401610b189061113a565b60405180910390fd5b6001600360006101000a81548160ff021916908315150217905550565b60008060009054906101000a900473ffffffffffffffffffffffffffffffffffffffff16905090565b60008054906101000a900473ffffffffffffffffffffffffffffffffffffffff1673ffffffffffffffffffffffffffffffffffffffff163373ffffffffffffffffffffffffffffffffffffffff1614610bf5576040517f08c379a0000000000000000000000000000000000000000000000000000000008152600401610bec9061113a565b60405180910390fd5b600060405180608001604052808681526020018581526020018473ffffffffffffffffffffffffffffffffffffffff168152602001831515815250905080600560008573ffffffffffffffffffffffffffffffffffffffff1673ffffffffffffffffffffffffffffffffffffffff1681526020019081526020016000206000820151816000019080519060200190610c8e929190610d4e565b506020820151816001019080519060200190610cab929190610d4e565b5060408201518160020160006101000a81548173ffffffffffffffffffffffffffffffffffffffff021916908373ffffffffffffffffffffffffffffffffffffffff16021790555060608201518160020160146101000a81548160ff021916908315150217905550905050600160026000828254610d299190611245565b925050819055505050505050565b6000600360009054906101000a900460ff16905090565b828054610d5a90611359565b90600052602060002090601f016020900481019282610d7c5760008555610dc3565b82601f10610d9557805160ff1916838001178555610dc3565b82800160010185558215610dc3579182015b82811115610dc2578251825591602001919060010190610da7565b5b509050610dd09190610dd4565b5090565b5b80821115610ded576000816000905550600101610dd5565b5090565b6000610e04610dff846111f9565b6111c8565b905082815260208101848484011115610e1c57600080fd5b610e27848285611317565b509392505050565b600081359050610e3e81611472565b92915050565b600081359050610e5381611489565b92915050565b600082601f830112610e6a57600080fd5b8135610e7a848260208601610df1565b91505092915050565b600081359050610e92816114a0565b92915050565b600060208284031215610eaa57600080fd5b6000610eb884828501610e2f565b91505092915050565b60008060408385031215610ed457600080fd5b600083013567ffffffffffffffff811115610eee57600080fd5b610efa85828601610e59565b925050602083013567ffffffffffffffff811115610f1757600080fd5b610f2385828601610e59565b9150509250929050565b60008060008060808587031215610f4357600080fd5b600085013567ffffffffffffffff811115610f5d57600080fd5b610f6987828801610e59565b945050602085013567ffffffffffffffff811115610f8657600080fd5b610f9287828801610e59565b9350506040610fa387828801610e2f565b9250506060610fb487828801610e44565b91505092959194509250565b600060208284031215610fd257600080fd5b6000610fe084828501610e83565b91505092915050565b610ff2816112cf565b82525050565b611001816112e1565b82525050565b600061101282611229565b61101c8185611234565b935061102c818560208601611326565b61103581611461565b840191505092915050565b600061104d600a83611234565b91507f6f6e6c79204f776e6572000000000000000000000000000000000000000000006000830152602082019050919050565b6110898161130d565b82525050565b60006020820190506110a46000830184610fe9565b92915050565b60006020820190506110bf6000830184610ff8565b92915050565b600060208201905081810360008301526110df8184611007565b905092915050565b600060808201905081810360008301526111018187611007565b905081810360208301526111158186611007565b90506111246040830185610fe9565b6111316060830184610ff8565b95945050505050565b6000602082019050818103600083015261115381611040565b9050919050565b600060208201905061116f6000830184611080565b92915050565b600060808201905061118a6000830187611080565b818103602083015261119c8186611007565b905081810360408301526111b08185611007565b90506111bf6060830184611080565b95945050505050565b6000604051905081810181811067ffffffffffffffff821117156111ef576111ee611432565b5b8060405250919050565b600067ffffffffffffffff82111561121457611213611432565b5b601f19601f8301169050602081019050919050565b600081519050919050565b600082825260208201905092915050565b60006112508261130d565b915061125b8361130d565b9250827fffffffffffffffffffffffffffffffffffffffffffffffffffffffffffffffff038211156112905761128f6113d4565b5b828201905092915050565b60006112a68261130d565b91506112b18361130d565b9250828210156112c4576112c36113d4565b5b828203905092915050565b60006112da826112ed565b9050919050565b60008115159050919050565b600073ffffffffffffffffffffffffffffffffffffffff82169050919050565b6000819050919050565b82818337600083830152505050565b60005b83811015611344578082015181840152602081019050611329565b83811115611353576000848401525b50505050565b6000600282049050600182168061137157607f821691505b6020821081141561138557611384611403565b5b50919050565b60006113968261130d565b91507fffffffffffffffffffffffffffffffffffffffffffffffffffffffffffffffff8214156113c9576113c86113d4565b5b600182019050919050565b7f4e487b7100000000000000000000000000000000000000000000000000000000600052601160045260246000fd5b7f4e487b7100000000000000000000000000000000000000000000000000000000600052602260045260246000fd5b7f4e487b7100000000000000000000000000000000000000000000000000000000600052604160045260246000fd5b6000601f19601f8301169050919050565b61147b816112cf565b811461148657600080fd5b50565b611492816112e1565b811461149d57600080fd5b50565b6114a98161130d565b81146114b457600080fd5b5056fea2646970667358221220ff173ba29fa020424544fc73cd29086dbba7631ad4cf44f9b73e09ab8795076864736f6c63430008000033",
  "immutableReferences": {},
  "source": "pragma solidity >=0.6.0 <0.9.0;\r\n\r\n\r\n// SPDX-License-Identifier: MIT\r\n\r\ncontract VotingContract {\r\n    address owner;\r\n\r\n    uint256 candidateCount = 0;\r\n\r\n    uint256 voterCount = 0;\r\n\r\n    bool start;\r\n\r\n    string pollName;\r\n\r\n    // Struct of a voter\r\n    struct Voter {\r\n        string name;\r\n        string voterId; // Roll number or any other number\r\n        address voterAddress; // Wallet address\r\n        bool hasVoted;\r\n    }\r\n\r\n    mapping(address => Voter) public voterAddresses;\r\n\r\n    // Struct of a candidate\r\n    struct Candidate {\r\n        uint256 candidateId;\r\n        string name;\r\n        string details; // manifesto or any other description\r\n        uint256 voteCount; // the number of votes he got\r\n    }\r\n\r\n    mapping(uint => Candidate) public candidateDetails;\r\n\r\n    uint [] private candidateVote;\r\n\r\n    // Modifier for letting only the owner to add candidates\r\n    modifier onlyOwner{\r\n        require(msg.sender == owner, \"only Owner\");\r\n        _;\r\n    }   \r\n\r\n    constructor( )public {\r\n        owner = msg.sender;\r\n    }\r\n\r\n    // function to add a new candidate\r\n    function addCandidate(string memory _name, string memory _details)\r\n        public\r\n        onlyOwner\r\n    {\r\n        Candidate memory newCandidate = Candidate({\r\n            candidateId: candidateCount,\r\n            name: _name,\r\n            details: _details,\r\n            voteCount: 0\r\n        });\r\n\r\n        candidateDetails[candidateCount] = newCandidate;\r\n\r\n        candidateCount += 1;\r\n    }\r\n\r\n    // function to add voter\r\n    // only suitable for a local blockchain\r\n    function manualAddVoter(\r\n        string memory _name,\r\n        string memory _voterId,\r\n        address _voterAddress,\r\n        bool _hasVoted\r\n    ) public onlyOwner {\r\n        Voter memory newVoter = Voter({\r\n            name: _name,\r\n            voterId: _voterId,\r\n            voterAddress: _voterAddress,\r\n            hasVoted: _hasVoted\r\n        });\r\n\r\n        voterAddresses[_voterAddress] = newVoter;\r\n\r\n        voterCount += 1;\r\n    }\r\n\r\n    // actual function to add voters shouldbe done by an oracle\r\n    // work on this later\r\n\r\n    // the actual voting function\r\n    function vote(uint256 _candidateId) public {\r\n        require(voterAddresses[msg.sender].hasVoted == false);\r\n        require(start == true);\r\n        candidateDetails[_candidateId].voteCount += 1;\r\n        voterAddresses[msg.sender].hasVoted = true;\r\n    }\r\n\r\n    // onlyOwner function for starting the election\r\n    function startElection() public onlyOwner {\r\n        start = true;\r\n    }\r\n\r\n    // onlyOwner function to end election\r\n    function endEelection() public onlyOwner {\r\n        start = false;\r\n    }\r\n\r\n    // public function to view election status (use this in dashboard)\r\n    function electionStatus() public view returns (bool) {\r\n        return (start);\r\n    }\r\n    uint winner=0;\r\n    // function to view election results\r\n    function electionResults() public onlyOwner returns (uint) {\r\n        require(start == false);\r\n        \r\n        for(uint i=0; i<candidateCount; i++){\r\n            candidateVote.push(candidateDetails[i].voteCount);\r\n        }\r\n        for(uint i=1; i<candidateCount; i++){\r\n            if(candidateVote[i]>candidateVote[i-1]){\r\n                winner=i;\r\n            }\r\n        }\r\n        return winner;\r\n        \r\n        \r\n    }\r\n    function viewWinner() public view returns(string memory){\r\n        return candidateDetails[winner].name;\r\n    }\r\n\r\n    // get total number of voters\r\n    function getVoterCount() public view returns (uint) {\r\n        return voterCount;\r\n}\r\n    function getOwner() public view returns (address){\r\n        return owner;\r\n    }\r\n\r\n    function getCandidateCount() public view returns (uint256) {\r\n        return candidateCount;\r\n    }\r\n}",
  "sourcePath": "C:\\Users\\Hp\\Desktop\\Blockchain-cfi\\contracts\\VotingContract.sol",
  "compiler": {
    "name": "solc",
    "version": "0.8.0+commit.c7dfd78e.Emscripten.clang"
  },
  "schemaVersion": "3.4.5",
  "updatedAt": "2022-03-11T16:42:46.414Z",
  "networkType": "ethereum",
  "devdoc": {
    "kind": "dev",
    "methods": {},
    "version": 1
  },
  "userdoc": {
    "kind": "user",
    "methods": {},
    "version": 1
  }
}